{
  "contractName": "vending_Machine",
  "abi": [
    {
      "inputs": [],
      "stateMutability": "nonpayable",
      "type": "constructor"
    },
    {
      "inputs": [
        {
          "internalType": "address",
          "name": "",
          "type": "address"
        }
      ],
      "name": "donutBalances",
      "outputs": [
        {
          "internalType": "uint256",
          "name": "",
          "type": "uint256"
        }
      ],
      "stateMutability": "view",
      "type": "function"
    },
    {
      "inputs": [],
      "name": "owner",
      "outputs": [
        {
          "internalType": "address",
          "name": "",
          "type": "address"
        }
      ],
      "stateMutability": "view",
      "type": "function"
    },
    {
      "inputs": [],
      "name": "getvendingmachineBalance",
      "outputs": [
        {
          "internalType": "uint256",
          "name": "",
          "type": "uint256"
        }
      ],
      "stateMutability": "view",
      "type": "function"
    },
    {
      "inputs": [
        {
          "internalType": "uint256",
          "name": "amount",
          "type": "uint256"
        }
      ],
      "name": "restock",
      "outputs": [],
      "stateMutability": "nonpayable",
      "type": "function"
    },
    {
      "inputs": [
        {
          "internalType": "uint256",
          "name": "amount",
          "type": "uint256"
        }
      ],
      "name": "purchase",
      "outputs": [],
      "stateMutability": "payable",
      "type": "function"
    }
  ],
  "bytecode": "0x608060405234801561001057600080fd5b50336000806101000a81548173ffffffffffffffffffffffffffffffffffffffff021916908373ffffffffffffffffffffffffffffffffffffffff1602179055506064600160003073ffffffffffffffffffffffffffffffffffffffff1673ffffffffffffffffffffffffffffffffffffffff16815260200190815260200160002081905550610835806100a56000396000f3fe60806040526004361061004a5760003560e01c806346898c811461004f5780638da5cb5b1461007a5780639a020d8a146100a5578063c21a702a146100e2578063efef39a11461010b575b600080fd5b34801561005b57600080fd5b50610064610127565b6040516100719190610431565b60405180910390f35b34801561008657600080fd5b5061008f61016e565b60405161009c919061048d565b60405180910390f35b3480156100b157600080fd5b506100cc60048036038101906100c791906104d9565b610192565b6040516100d99190610431565b60405180910390f35b3480156100ee57600080fd5b5061010960048036038101906101049190610532565b6101aa565b005b61012560048036038101906101209190610532565b610291565b005b6000600160003073ffffffffffffffffffffffffffffffffffffffff1673ffffffffffffffffffffffffffffffffffffffff16815260200190815260200160002054905090565b60008054906101000a900473ffffffffffffffffffffffffffffffffffffffff1681565b60016020528060005260406000206000915090505481565b60008054906101000a900473ffffffffffffffffffffffffffffffffffffffff1673ffffffffffffffffffffffffffffffffffffffff163373ffffffffffffffffffffffffffffffffffffffff1614610238576040517f08c379a000000000000000000000000000000000000000000000000000000000815260040161022f906105e2565b60405180910390fd5b80600160003073ffffffffffffffffffffffffffffffffffffffff1673ffffffffffffffffffffffffffffffffffffffff16815260200190815260200160002060008282546102879190610631565b9250508190555050565b671bc16d674ec80000816102a59190610665565b3410156102e7576040517f08c379a00000000000000000000000000000000000000000000000000000000081526004016102de90610719565b60405180910390fd5b80600160003073ffffffffffffffffffffffffffffffffffffffff1673ffffffffffffffffffffffffffffffffffffffff168152602001908152602001600020541015610369576040517f08c379a0000000000000000000000000000000000000000000000000000000008152600401610360906107ab565b60405180910390fd5b80600160003073ffffffffffffffffffffffffffffffffffffffff1673ffffffffffffffffffffffffffffffffffffffff16815260200190815260200160002060008282546103b891906107cb565b9250508190555080600160003373ffffffffffffffffffffffffffffffffffffffff1673ffffffffffffffffffffffffffffffffffffffff168152602001908152602001600020600082825461040e9190610631565b9250508190555050565b6000819050919050565b61042b81610418565b82525050565b60006020820190506104466000830184610422565b92915050565b600073ffffffffffffffffffffffffffffffffffffffff82169050919050565b60006104778261044c565b9050919050565b6104878161046c565b82525050565b60006020820190506104a2600083018461047e565b92915050565b600080fd5b6104b68161046c565b81146104c157600080fd5b50565b6000813590506104d3816104ad565b92915050565b6000602082840312156104ef576104ee6104a8565b5b60006104fd848285016104c4565b91505092915050565b61050f81610418565b811461051a57600080fd5b50565b60008135905061052c81610506565b92915050565b600060208284031215610548576105476104a8565b5b60006105568482850161051d565b91505092915050565b600082825260208201905092915050565b7f6f6e6c7920746865206f776e65722063616e20726573746f636b20746869732060008201527f6d616368696e6500000000000000000000000000000000000000000000000000602082015250565b60006105cc60278361055f565b91506105d782610570565b604082019050919050565b600060208201905081810360008301526105fb816105bf565b9050919050565b7f4e487b7100000000000000000000000000000000000000000000000000000000600052601160045260246000fd5b600061063c82610418565b915061064783610418565b925082820190508082111561065f5761065e610602565b5b92915050565b600061067082610418565b915061067b83610418565b925082820261068981610418565b915082820484148315176106a05761069f610602565b5b5092915050565b7f796f75206d757374207061792061746c6561737420322065746865722070657260008201527f20646f6e75740000000000000000000000000000000000000000000000000000602082015250565b600061070360268361055f565b915061070e826106a7565b604082019050919050565b60006020820190508181036000830152610732816106f6565b9050919050565b7f6e6f7420656e6f75676820646f6e75747320746f20707572636861736520726560008201527f7175657374000000000000000000000000000000000000000000000000000000602082015250565b600061079560258361055f565b91506107a082610739565b604082019050919050565b600060208201905081810360008301526107c481610788565b9050919050565b60006107d682610418565b91506107e183610418565b92508282039050818111156107f9576107f8610602565b5b9291505056fea264697066735822122000dd1098b378ead34d014eb07c8184da8b67798ea3170d3932db62337de9e16b64736f6c63430008110033",
  "immutableReferences": {},
  "source": "// SPDX-License-Identifier: MIT\npragma solidity >=0.4.22 <0.9.0;\n\ncontract vending_Machine {\n  address public owner;\n  mapping (address => uint) public donutBalances;\n\n  constructor() {\n    owner = msg.sender;\n    donutBalances[address(this)] = 100;\n  }\n\n  function getvendingmachineBalance() public view returns(uint) {\n    return donutBalances[address(this)];\n  }\n\n  function restock(uint amount) public {\n    require(msg.sender == owner, \"only the owner can restock this machine\");\n    donutBalances[address(this)] += amount;\n  }\n\n  function purchase(uint amount) public payable {\n    require(msg.value >= amount * 2 ether, \"you must pay atleast 2 ether per donut\");\n    require(donutBalances[address(this)] >= amount, \"not enough donuts to purchase request\");\n    donutBalances[address(this)] -= amount;\n    donutBalances[msg.sender] += amount;\n  }\n}\n",
  "sourcePath": "/home/ted/Desktop/Solidity/hello-world/contracts/vending_Machine.sol",
  "compiler": {
    "name": "solc",
    "version": "0.8.17+commit.8df45f5f.Emscripten.clang"
  },
  "schemaVersion": "3.4.10",
  "updatedAt": "2022-10-18T09:47:47.536Z",
  "devdoc": {
    "kind": "dev",
    "methods": {},
    "version": 1
  },
  "userdoc": {
    "kind": "user",
    "methods": {},
    "version": 1
  }
}